:020000040800F2
:1000000070060020250200087F030008770300081F
:100010007B0300087103000843040008000000008F
:10002000000000000000000000000000C503000800
:100030007503000800000000C1030008C7030008A2
:100040003F0200083F0200083F0200083F0200088C
:100050003F0200083F0200083F0200083F0200087C
:100060003F0200083F0200083F0200083F0200086C
:100070003F0200083F0200083F0200083F0200085C
:100080003F0200083F0200083F0200083F0200084C
:100090003F0200083F0200083F0200083F0200083C
:1000A0003F0200083F0200083F0200083F0200082C
:1000B0003F0200083F0200083F0200083F0200081C
:1000C0003F0200083F0200083F0200083F0200080C
:1000D0003F0200083F0200083F0200083F020008FC
:1000E0003F0200083F0200083F0200083F020008EC
:1000F0003F0200083F0200083F0200083F020008DC
:100100003F0200083F0200083F0200083F020008CB
:100110003F0200083F0200083F0200083F020008BB
:100120003F0200083F0200083F0200083F020008AB
:10013000C30300083F0200083F0200083F02000816
:1001400000000000000000000000000000000000AF
:100150003F0200083F0200083F0200083F0200087B
:100160003F0200083F020008410400083F02000867
:100170003F0200083F0200083F0200083F0200085B
:100180003F02000800F002F800F03CF80AA090E8F6
:10019000000C82448344AAF10107DA4501D100F042
:1001A00031F8AFF2090EBAE80F0013F0010F18BFD3
:1001B000FB1A43F001031847DC100000FC1000009C
:1001C000103A24BF78C878C1FAD8520724BF30C883
:1001D00030C144BF04680C60704700000023002455
:1001E00000250026103A28BF78C1FBD8520728BF47
:1001F00030C148BF0B6070471FB501F029F81FBD23
:1002000010B510BD00F06EF81146FFF7F5FF00F0D5
:10021000F7FB00F0A0F803B4FFF7F2FF03BC00F017
:100220002FF900000948804709480047FEE7FEE72C
:10023000FEE7FEE7FEE7FEE7FEE7FEE7FEE7FEE796
:1002400004480549054A064B70470000D1030008E1
:100250008501000870000020700600207002002058
:1002600070020020704700000FB4044910B503AAC3
:10027000029800F009F810BC5DF814FB040000209F
:100280007047704770477047074B70B50D467B4409
:1002900000F011F80446284600F020F810B14FF0A5
:1002A000FF3070BD204670BD2F06000001694A1C5A
:1002B00002610878704700B58FB0CDE901310021A7
:1002C000059105497944CDE903101146684600F0CF
:1002D0002EF80FB000BD0000E5FFFFFF007B00F02F
:1002E00080007047754600F03FF8AE46050069464D
:1002F000534620F00700854618B020B5FFF7A0FF51
:10030000BDE820404FF000064FF000074FF0000816
:100310004FF0000B21F00701AC46ACE8C009ACE897
:10032000C009ACE8C009ACE8C0098D4670472DE9AA
:10033000F04106460024D6E90170F5688046304653
:1003400003E04146B847641C3046A8470028F8D16E
:100350002046BDE8F08110B50446AFF3008020468A
:10036000BDE81040FFF757BF004870470C00002061
:1003700000BFFEE7704700BFFEE700BFFEE7704723
:10038000F0B503460C4603F00701C1F1070004284D
:1003900001D9042001E0C1F107000646081D072825
:1003A00001D2002000E0C81E05460120B040401EDA
:1003B0002040A8400127AF407F1E17403843F0BDC2
:1003C00070477047704710B500F0CAFE10BD0000BE
:1003D0001848006840F47000164908601648006824
:1003E00020F00100401C1449086000BF124800685A
:1003F000C0F340000028F9D00F48406820F0030007
:100400000D49486000BF0C484068C0F381000028D7
:10041000F9D10948006809490840074908600020E7
:10042000486008634FF41F008860C80301498039A1
:100430000860704788ED00E000100240FFFFF2FE08
:10044000704700BFFEE7000002480068C0F30220CA
:10045000704700000CED00E010B5002804DB0A072F
:10046000130E054A135406E00A07140E034A00F05F
:100470000F031B1FD45410BD00E400E018ED00E092
:100480007047000030B90A4A126822F00202084B95
:100490001A6006E0064A126822F00202921C044B1F
:1004A0001A60034A126861F30002014B1A60704738
:1004B0000458014001490860704700000C58014091
:1004C0000149086070470000105801400149086068
:1004D00070470000145801400349496860F3071150
:1004E000014A51607047000000100240034949680A
:1004F00060F30A21014A5160704700000010024079
:100500000349496860F3CD21014A516070470000FA
:1005100000100240012807D10749496D21F0300140
:100520003031054A516505E00349496D21F030013C
:10053000014A51657047000000100240052827D28B
:10054000DFE800F0030A11181F00134A126861F374
:100550000002114B1A601CE00F4A126861F310424E
:100560000D4B1A6015E00C4A126861F318620A4BD1
:100570001A600EE0084A126A61F30002064B1A6222
:1005800007E0054A526A61F30002034B5A6200E039
:1005900000BF00BF70470000001002402DE9F0418D
:1005A000014600270022002590460023002400F089
:1005B00065F9064626B1012E12D0022E43D112E073
:1005C0003948406DC0F3402038B13748006BC0F364
:1005D000406010B13548086001E03548086035E0FA
:1005E0003348086032E030484068C0F300482E4885
:1005F0004068C0F383422C484068C0F341750DB990
:100600000F2A03D12801401C024400E0921CB8F1DB
:10061000000F03D127485043086013E02248406888
:10062000C0F3404058B12048406DC0F30137B81CBA
:10063000DFF87CC0BCFBF0F05043086002E01C48CF
:100640005043086002E01A48086000BF00BF164827
:100650004068C0F303131848C45C0868E040486071
:1006600011484068C0F302231448C45C4868E04065
:10067000C8600D484068C0F3C2231148C45C486894
:10068000E040886008484068C0F30073064840684E
:10069000C0F3813040EA83030A48C45C8868B0FB39
:1006A000F4F00861BDE8F08100100240006CDC024B
:1006B00000127A0000093D005A1200086A12000870
:1006C000721200087A12000810B501460020094B8A
:1006D00003EB1142126801F01F040123A3401A40EA
:1006E00001F01F040123A3409A4200D000E0012042
:1006F00010BD0000001002400349096B60F359610E
:10070000014A1163704700000010024000B5034623
:100710000120FFF7F1FF0348406D63F349200149D1
:10072000486500BD0010024010B501290DD10E4BE7
:1007300003EB1042126800F01F040123A3401A4388
:10074000094C04EB10431A600CE0074B03EB10421A
:10075000126800F01F040123A3409A43024C04EBEB
:1007600010431A6010BD00000010024010B568B9B7
:100770001C4B5B6823F480331A4C636023461B6B6D
:1007800023F0007303F10073236317E0154B5B68DC
:1007900023F4803303F58033124C6360012805D1C4
:1007A00023465B6823F40033636007E00D4B5B680E
:1007B00023F4003303F500330A4C6360094B5B6894
:1007C00061F39543074C63600C09064B5B6864F367
:1007D0005E73044C636023465B6862F3DF7363609F
:1007E00010BD0000001002401348006820F0010016
:1007F000401C1149086000BF0F480068C0F340006A
:100800000028F9D00C48406820F003000A494860ED
:1008100000BF09484068C0F381000028F9D10648AC
:1008200000680649084004490860002048600863E1
:100830004FF41F008860704700100240FFFFF2FE77
:100840000D49496860F301010B4A516000BF00BFC8
:1008500000BF00BF00BF00BF00BF00BF00BF00BFA0
:1008600000BF00BF00BF00BF00BF00BF00BF00BF90
:1008700000BF00BF704700000010024002484068FF
:10088000C0F38100704700000010024010B504461C
:10089000012C01D1FFF73AFF0348406D64F30820B3
:1008A0000149486510BD0000001002400349C96DB0
:1008B00060F30001014AD16570470000001002405A
:1008C00070B504460D4600BF8021094800F0FBF9D1
:1008D0000028F9D0A1B2064800F0ECF900BF402191
:1008E000034800F0F0F90028F9D0204670BD000060
:1008F000003801404FF6FF710160002181710171E4
:10090000042141710121C1717047F0B50A46158873
:10091000ABB29579032D01D100241AE0957965B920
:10092000557905F00F045579182D01D1036110E0B8
:100930005579282D0DD143610BE0957905F0080517
:10094000167906F004063543D67906F0030645EA23
:100950000604DDB2A5B1002110E001258D401D4047
:100960005DB105688F000F26BE40B5430560056880
:100970008E0004FA06F635430560491C0829ECD3BD
:10098000FF2B15DD1B12002110E001258D401D40BD
:100990005DB145688F000F26BE40B5434560456890
:1009A0008E0004FA06F635434560491C0829ECD34D
:1009B000F0BD0000F0B50C46104F07EB1062C0F31D
:1009C0000741C0F30725C6B2C5F12007A7EB010C0C
:1009D0004FF0FF3707FA0CF3C5F120077F1AFB40F1
:1009E000CB408B4017689F4317602CB106FA01FC7F
:1009F000176847EA0C071760F0BD000000000140CF
:100A000000F066FB00F0A2FA00F01EFA00F033FAE4
:100A100000F0B2FB00F0CCFB00F0C0FA00F002FAEC
:100A200000F00EFC06E004A0FFF71EFC4FF47A7005
:100A300000F012FAF7E7000068656C6C6F20776FC2
:100A4000726C64200A0000002DE9F0470B46144642
:100A50004FF0000C00BF2C4A1268C2F302211D4661
:100A600026460A46C2F10709B9F1040F02D94FF030
:100A7000040901E0C2F10709C84602F10409B9F10D
:100A8000070F02D24FF0000901E0A2F103094F461F
:100A90004FF0010909FA08F9A9F1010909EA050964
:100AA00009FA07F94FF0010A0AFA07FAAAF1010A4E
:100AB0000AEA060A49EA0A09CC46014662460029C2
:100AC00004DB15072E0E114D6E5407E015072F0E8F
:100AD0000D4D0C3501F00F06361FAF5500BF014616
:100AE00000290DDB00BF00BF01F01F050122AA4055
:100AF0004D09AD0005F1E025C5F8002100BF00BF9C
:100B000000BFBDE8F08700000CED00E000E400E06D
:100B100000BF00F00702064B19684FF6FF031940AB
:100B2000044B0B4343EA0221014B196000BF70479D
:100B30000CED00E00000FA05426861F3CC2242604F
:100B40007047426861F38A224260704710B543687B
:100B500062F34D334360436861F3070343600C0A5B
:100B6000436864F3D033436010BD426861F30822E8
:100B700042607047426861F38E324260704742685B
:100B800061F3492242607047026861F3010202602A
:100B9000704700002DE9F0470026002400250027BB
:100BA000A046A146FFF76AFE8246BAF1000F06D0C2
:100BB000BAF1010F15D0BAF1020F46D115E02D4858
:100BC000406DC0F3402040B12A48006BC0F3406044
:100BD00018B129482949086002E0294827490860D6
:100BE00037E027482549086033E022484068C0F3D1
:100BF000004720484068C0F383441E484068C0F363
:100C000041750DB90F2C03D12801401C044400E0AC
:100C1000A41C27B91B4860431849086014E0154814
:100C20004068C0F3404058B11248406DC0F30136EF
:100C3000B01C1349B1FBF0F060431049086003E0B9
:100C40000F4860430D49086003E00D480B490860F8
:100C500000BF00BF07484068C0F303180A4810F8F7
:100C600008900648006820FA09F004490860BDE8C9
:100C7000F087000000100240006CDC020800002039
:100C800000127A0000093D0082120008042808D1F1
:100C90004FF0E021096941F004014FF0E0221161B9
:100CA00007E04FF0E021096921F004014FF0E02254
:100CB00011617047C1F3080242607047C26861F376
:100CC0004D32C260704702461068084008B10120EA
:100CD00070470020FCE741B9426922F4807242610A
:100CE000426922F40072426127E001290AD1426977
:100CF00022F4807202F580724261426922F400722D
:100D000042611AE002290AD1426922F480724261EA
:100D1000426922F4007202F5007242610DE003297B
:100D20000BD1426922F4807202F5807242614269FD
:100D300022F4007202F50072426170472DE9F0431F
:100D400085B004460F46904699466846FFF726FC54
:100D50001848844208D01848844205D01748844275
:100D600002D01748844201D1029E00E0039E06EBA8
:100D700086004000B0FBF7F50A20B5FBF0F100FB60
:100D80001150052803D20A20B5FBF0F503E00A2034
:100D9000B5FBF0F0451CA06865F30F00A060E068AB
:100DA00068F30C30E060206969F30D30206105B014
:100DB000BDE8F0830038014000600140006401405C
:100DC0000068014041B9C26822F40072C260C26882
:100DD00022F48062C2601AE001290AD1C26822F4BA
:100DE0000072C260C26822F4806202F58062C26052
:100DF0000DE002290BD1C26822F4007202F50072E4
:100E0000C260C26822F4806202F58062C2607047EC
:100E1000C26861F38202C2607047C26861F3C302B4
:100E2000C260704710B541F62C70FFF743FB4FF4DA
:100E3000FA50FFF745FB41F65470FFF747FB0121DD
:100E40000220FFF71FFB10BD10B501210148FFF77D
:100E5000B1FD10BD0203103070B5044600F07AF900
:100E60000546601C00B1641C00BF00F073F9401B14
:100E7000A042FAD370BD70B50320FFF749FEFFF71B
:100E8000E3FA054600221146FFF77AFA04462146A6
:100E90006FF00B00FFF7E0FAFFF7D6FA05460022E5
:100EA0001146FFF76DFA044621466FF00A00FFF77E
:100EB000D3FAFFF7C9FA054600221146FFF760FA98
:100EC000044621466FF00900FFF7C6FAFFF7BCFAA7
:100ED000054600221146FFF753FA044621466FF0FB
:100EE0000400FFF7B9FAFFF7AFFA054600221146F2
:100EF000FFF746FA044621466FF00300FFF7ACFA0D
:100F0000FFF7A2FA054600221146FFF739FA044618
:100F100021466FF00100FFF79FFAFFF795FA0546AB
:100F200000220F21FFF72CFA044621464FF0FF3034
:100F3000FFF792FA002211463C20FFF785FD0022C0
:100F400001214A20FFF780FD70BD000010B501218E
:100F50000F48FFF7E9FB01214FF4C010FFF7E4FB56
:100F600001210C48FFF7E0FB01210A48801CFFF734
:100F7000DBFB012107480C30FFF7D6FB01210548B8
:100F80001430FFF7D1FB01210348FFF7CDFB10BD63
:100F90000B0014000200180017001C001CB5684666
:100FA000FFF7A8FC02208DF8070000208DF8040050
:100FB00008208DF806001020009004208DF8050010
:100FC00069463F48FFF7A1FC02208DF8070000208A
:100FD0008DF8040008208DF80600202000900420E1
:100FE0008DF8050069463648FFF78FFC02208DF822
:100FF000070000208DF8040008208DF8060040202E
:10100000009004208DF8050069462D48FFF77DFC0F
:1010100002208DF8070000208DF8040008208DF8CC
:1010200006008020009004208DF8050069462448C1
:10103000FFF76BFC02208DF8070000208DF80400FC
:1010400008208DF806001020009004208DF805007F
:1010500069461C48FFF759FC02208DF80700002064
:101060008DF8040008208DF8060020200090042050
:101070008DF8050069461348FFF747FC0121124827
:10108000FFF798FC002211461048FFF75FFD002192
:101090000E48FFF774FD00210C48FFF76BFD00219F
:1010A0000A48FFF74EFD01210848FFF745FD0321DF
:1010B0000648FFF769FD01210448FFF756FD1CBDF6
:1010C000000801400010014001040C2C00340240D3
:1010D00010B5FFF789FB01210420FFF72FFA00BFAD
:1010E0001B48FFF7F1FA0128FAD101210020FFF790
:1010F00025FA00BF0120FFF7E7FA0128FAD1012203
:101100003B210020FFF732FB01210220FFF716FAF6
:1011100000BF1920FFF7D8FA0128FAD10020FFF705
:10112000DBF90420FFF7ECF90420FFF7DFF90120D9
:10113000FFF7F0F90220FFF783FB00BFFFF79EFBEC
:101140000228FBD10020FFF7E5F9FFF723FD10BDD2
:1011500001002400014800687047000000000020E2
:1011600010B500F001F810BD02480068401C0149AC
:10117000086070470000002010B586B0002401A868
:10118000FFF70CFA0298C4080020FFF77FFD4FF428
:101190007A70B4FBF0F0401E4FF0E021486100206F
:1011A00088610846006940F00300086106B010BD80
:1011B0001CB56846FFF79EFB02208DF80700002053
:1011C0008DF8040008208DF80600800100900420AE
:1011D0008DF8050069461848FFF797FB02208DF847
:1011E000070000208DF804008DF806004FF48060A1
:1011F000009004208DF8050069460F48FFF785FB35
:1012000000231A464FF4E1310C48FFF797FD012106
:101210000A48FFF702FE01210848FFF7F9FD002107
:101220000648FFF7CFFD00210448FFF754FD0121D8
:101230000248FFF743FD1CBD000801400038014093
:1012400010B50120FFF732FB0120FFF71FFB10BD97
:101250004FF04070E1EE100A7047000000000000FF
:101260000000010203040607080900000000010253
:101270000304000000000102030402040608020C3B
:10128000081000000000000000000102030406072F
:1012900008090000B4120008000000200C00000043
:1012A000C0010008C01200080C0000206406000005
:1012B000DC010008000000000000000000127A00BD
:040000050800018569
:00000001FF
